{
  "contractName": "KOPrintRegistryMinter",
  "abi": [
    {
      "constant": true,
      "inputs": [],
      "name": "owner2",
      "outputs": [
        {
          "name": "",
          "type": "address"
        }
      ],
      "payable": false,
      "stateMutability": "view",
      "type": "function"
    },
    {
      "constant": true,
      "inputs": [
        {
          "name": "",
          "type": "address"
        }
      ],
      "name": "addressToCreditsToSpend",
      "outputs": [
        {
          "name": "",
          "type": "uint256"
        }
      ],
      "payable": false,
      "stateMutability": "view",
      "type": "function"
    },
    {
      "constant": true,
      "inputs": [],
      "name": "koprContract",
      "outputs": [
        {
          "name": "",
          "type": "address"
        }
      ],
      "payable": false,
      "stateMutability": "view",
      "type": "function"
    },
    {
      "constant": true,
      "inputs": [],
      "name": "kov1Contract",
      "outputs": [
        {
          "name": "",
          "type": "address"
        }
      ],
      "payable": false,
      "stateMutability": "view",
      "type": "function"
    },
    {
      "constant": true,
      "inputs": [],
      "name": "owner1",
      "outputs": [
        {
          "name": "",
          "type": "address"
        }
      ],
      "payable": false,
      "stateMutability": "view",
      "type": "function"
    },
    {
      "constant": true,
      "inputs": [],
      "name": "kov2Contract",
      "outputs": [
        {
          "name": "",
          "type": "address"
        }
      ],
      "payable": false,
      "stateMutability": "view",
      "type": "function"
    },
    {
      "constant": true,
      "inputs": [
        {
          "name": "",
          "type": "address"
        }
      ],
      "name": "managerAddressToCreditsToGive",
      "outputs": [
        {
          "name": "",
          "type": "uint256"
        }
      ],
      "payable": false,
      "stateMutability": "view",
      "type": "function"
    },
    {
      "inputs": [
        {
          "name": "_owner2",
          "type": "address"
        },
        {
          "name": "_registryContract",
          "type": "address"
        }
      ],
      "payable": false,
      "stateMutability": "nonpayable",
      "type": "constructor"
    },
    {
      "constant": false,
      "inputs": [
        {
          "name": "_artId",
          "type": "uint256"
        },
        {
          "name": "_contactMethodAndType",
          "type": "string"
        }
      ],
      "name": "mint",
      "outputs": [
        {
          "name": "",
          "type": "uint256"
        }
      ],
      "payable": false,
      "stateMutability": "nonpayable",
      "type": "function"
    },
    {
      "constant": false,
      "inputs": [
        {
          "name": "_recipient",
          "type": "address"
        }
      ],
      "name": "giveCredit",
      "outputs": [],
      "payable": false,
      "stateMutability": "nonpayable",
      "type": "function"
    },
    {
      "constant": false,
      "inputs": [
        {
          "name": "_manager",
          "type": "address"
        },
        {
          "name": "_credits",
          "type": "uint256"
        }
      ],
      "name": "setManagerCredits",
      "outputs": [
        {
          "name": "",
          "type": "bool"
        }
      ],
      "payable": false,
      "stateMutability": "nonpayable",
      "type": "function"
    },
    {
      "constant": false,
      "inputs": [
        {
          "name": "_manager",
          "type": "address"
        }
      ],
      "name": "removeManager",
      "outputs": [
        {
          "name": "",
          "type": "bool"
        }
      ],
      "payable": false,
      "stateMutability": "nonpayable",
      "type": "function"
    }
  ],
  "bytecode": "0x608060405234801561001057600080fd5b5060405160408061094f8339810180604052604081101561003057600080fd5b50805160209091015160008054600160a060020a03928316600160a060020a03199182161790915560018054821673dde2d979e8d39bb8416eafcfc1758f3cab2c9c7217905560028054821673fbeef911dc5821886e1dda71586d90ed28174b7d1790556003805482163317905560048054929093169116179055610895806100ba6000396000f3fe6080604052600436106100ae5763ffffffff7c010000000000000000000000000000000000000000000000000000000060003504166303c4bee181146100b3578063321dbe26146100e857806352709725146101355780635eaafbca1461016657806367d93e45146101ab5780636ce5187c146101c057806373688914146101d557806377097fc8146101ea578063963f28f0146102a457806397038a58146102b9578063ac18de43146102ec575b600080fd5b3480156100bf57600080fd5b506100e6600480360360208110156100d657600080fd5b5035600160a060020a031661031f565b005b3480156100f457600080fd5b506101216004803603604081101561010b57600080fd5b50600160a060020a0381351690602001356103e8565b604080519115158252519081900360200190f35b34801561014157600080fd5b5061014a61043a565b60408051600160a060020a039092168252519081900360200190f35b34801561017257600080fd5b506101996004803603602081101561018957600080fd5b5035600160a060020a0316610449565b60408051918252519081900360200190f35b3480156101b757600080fd5b5061014a61045b565b3480156101cc57600080fd5b5061014a61046a565b3480156101e157600080fd5b5061014a610479565b3480156101f657600080fd5b506101996004803603604081101561020d57600080fd5b8135919081019060408101602082013564010000000081111561022f57600080fd5b82018360208201111561024157600080fd5b8035906020019184600183028401116401000000008311171561026357600080fd5b91908080601f016020809104026020016040519081016040528093929190818152602001838380828437600092019190915250929550610488945050505050565b3480156102b057600080fd5b5061014a6107f9565b3480156102c557600080fd5b50610199600480360360208110156102dc57600080fd5b5035600160a060020a0316610808565b3480156102f857600080fd5b506101216004803603602081101561030f57600080fd5b5035600160a060020a031661081a565b33600090815260066020526040812054908111806103475750600354600160a060020a031633145b8061035c5750600454600160a060020a031633145b15156103b2576040805160e560020a62461bcd02815260206004820152601960248201527f596f75206d7573742068617665207065726d697373696f6e2100000000000000604482015290519081900360640190fd5b50600160a060020a0316600090815260056020908152604080832080546001019055338352600690915290208054600019019055565b600354600090600160a060020a031633148061040e5750600454600160a060020a031633145b151561041957600080fd5b50600160a060020a0391909116600090815260066020526040902055600190565b600454600160a060020a031681565b60056020526000908152604090205481565b600054600160a060020a031681565b600154600160a060020a031681565b600354600160a060020a031681565b3360009081526005602052604081205461013084101561059757600154604080517f6352211e000000000000000000000000000000000000000000000000000000008152600481018790529051600160a060020a0390921691636352211e91602480820192602092909190829003018186803b15801561050757600080fd5b505afa15801561051b573d6000803e3d6000fd5b505050506040513d602081101561053157600080fd5b5051600160a060020a03163314610592576040805160e560020a62461bcd02815260206004820152601560248201527f596f75206d757374206f776e20617274776f726b2e0000000000000000000000604482015290519081900360640190fd5b610687565b600254604080517f6352211e000000000000000000000000000000000000000000000000000000008152600481018790529051600160a060020a0390921691636352211e91602480820192602092909190829003018186803b1580156105fc57600080fd5b505afa158015610610573d6000803e3d6000fd5b505050506040513d602081101561062657600080fd5b5051600160a060020a03163314610687576040805160e560020a62461bcd02815260206004820152601560248201527f596f75206d757374206f776e20617274776f726b2e0000000000000000000000604482015290519081900360640190fd5b600081116106df576040805160e560020a62461bcd02815260206004820152601660248201527f596f75206d757374206861766520637265646974732100000000000000000000604482015290519081900360640190fd5b60008054604080517f77097fc80000000000000000000000000000000000000000000000000000000081526004810188815260248201928352875160448301528751600160a060020a03909416936377097fc8938a938a939260649091019060208501908083838c5b83811015610760578181015183820152602001610748565b50505050905090810190601f16801561078d5780820380516001836020036101000a031916815260200191505b509350505050602060405180830381600087803b1580156107ad57600080fd5b505af11580156107c1573d6000803e3d6000fd5b505050506040513d60208110156107d757600080fd5b5051336000908152600560205260409020805460001901905595945050505050565b600254600160a060020a031681565b60066020526000908152604090205481565b600354600090600160a060020a03163314806108405750600454600160a060020a031633145b151561084b57600080fd5b50600160a060020a031660009081526006602052604081205560019056fea165627a7a72305820c061584a2ae904f492e785d86567caab83a9c0252712d029ade5218af4c187920029",
  "source": "\n/**************\n\n * Copyright Art Blocks LLC 2020. www.artblocks.io.\n *************/\n\n\n\n\n// File: openzeppelin-solidity/contracts/math/SafeMath.sol\n\n\n\npragma solidity ^0.5.0;\n\n/**\n * @dev Wrappers over Solidity's arithmetic operations with added overflow\n * checks.\n *\n * Arithmetic operations in Solidity wrap on overflow. This can easily result\n * in bugs, because programmers usually assume that an overflow raises an\n * error, which is the standard behavior in high level programming languages.\n * `SafeMath` restores this intuition by reverting the transaction when an\n * operation overflows.\n *\n * Using this library instead of the unchecked operations eliminates an entire\n * class of bugs, so it's recommended to use it always.\n */\nlibrary SafeMath {\n    /**\n     * @dev Returns the addition of two unsigned integers, reverting on\n     * overflow.\n     *\n     * Counterpart to Solidity's `+` operator.\n     *\n     * Requirements:\n     * - Addition cannot overflow.\n     */\n    function add(uint256 a, uint256 b) internal pure returns (uint256) {\n        uint256 c = a + b;\n        require(c >= a, \"SafeMath: addition overflow\");\n\n        return c;\n    }\n\n    /**\n     * @dev Returns the subtraction of two unsigned integers, reverting on\n     * overflow (when the result is negative).\n     *\n     * Counterpart to Solidity's `-` operator.\n     *\n     * Requirements:\n     * - Subtraction cannot overflow.\n     */\n    function sub(uint256 a, uint256 b) internal pure returns (uint256) {\n        require(b <= a, \"SafeMath: subtraction overflow\");\n        uint256 c = a - b;\n\n        return c;\n    }\n\n    /**\n     * @dev Returns the multiplication of two unsigned integers, reverting on\n     * overflow.\n     *\n     * Counterpart to Solidity's `*` operator.\n     *\n     * Requirements:\n     * - Multiplication cannot overflow.\n     */\n    function mul(uint256 a, uint256 b) internal pure returns (uint256) {\n        // Gas optimization: this is cheaper than requiring 'a' not being zero, but the\n        // benefit is lost if 'b' is also tested.\n        // See: https://github.com/OpenZeppelin/openzeppelin-solidity/pull/522\n        if (a == 0) {\n            return 0;\n        }\n\n        uint256 c = a * b;\n        require(c / a == b, \"SafeMath: multiplication overflow\");\n\n        return c;\n    }\n\n    /**\n     * @dev Returns the integer division of two unsigned integers. Reverts on\n     * division by zero. The result is rounded towards zero.\n     *\n     * Counterpart to Solidity's `/` operator. Note: this function uses a\n     * `revert` opcode (which leaves remaining gas untouched) while Solidity\n     * uses an invalid opcode to revert (consuming all remaining gas).\n     *\n     * Requirements:\n     * - The divisor cannot be zero.\n     */\n    function div(uint256 a, uint256 b) internal pure returns (uint256) {\n        // Solidity only automatically asserts when dividing by 0\n        require(b > 0, \"SafeMath: division by zero\");\n        uint256 c = a / b;\n        // assert(a == b * c + a % b); // There is no case in which this doesn't hold\n\n        return c;\n    }\n\n    /**\n     * @dev Returns the remainder of dividing two unsigned integers. (unsigned integer modulo),\n     * Reverts when dividing by zero.\n     *\n     * Counterpart to Solidity's `%` operator. This function uses a `revert`\n     * opcode (which leaves remaining gas untouched) while Solidity uses an\n     * invalid opcode to revert (consuming all remaining gas).\n     *\n     * Requirements:\n     * - The divisor cannot be zero.\n     */\n    function mod(uint256 a, uint256 b) internal pure returns (uint256) {\n        require(b != 0, \"SafeMath: modulo by zero\");\n        return a % b;\n    }\n}\n\n// File: openzeppelin-solidity/contracts/utils/Address.sol\n\npragma solidity ^0.5.0;\n\n/**\n * @dev Collection of functions related to the address type,\n */\nlibrary Address {\n    /**\n     * @dev Returns true if `account` is a contract.\n     *\n     * This test is non-exhaustive, and there may be false-negatives: during the\n     * execution of a contract's constructor, its address will be reported as\n     * not containing a contract.\n     *\n     * > It is unsafe to assume that an address for which this function returns\n     * false is an externally-owned account (EOA) and not a contract.\n     */\n    function isContract(address account) internal view returns (bool) {\n        // This method relies in extcodesize, which returns 0 for contracts in\n        // construction, since the code is only stored at the end of the\n        // constructor execution.\n\n        uint256 size;\n        // solhint-disable-next-line no-inline-assembly\n        assembly { size := extcodesize(account) }\n        return size > 0;\n    }\n}\n\n// File: openzeppelin-solidity/contracts/drafts/Counters.sol\n\npragma solidity ^0.5.0;\n\n\n/**\n * @title Counters\n * @author Matt Condon (@shrugs)\n * @dev Provides counters that can only be incremented or decremented by one. This can be used e.g. to track the number\n * of elements in a mapping, issuing ERC721 ids, or counting request ids.\n *\n * Include with `using Counters for Counters.Counter;`\n * Since it is not possible to overflow a 256 bit integer with increments of one, `increment` can skip the SafeMath\n * overflow check, thereby saving gas. This does assume however correct usage, in that the underlying `_value` is never\n * directly accessed.\n */\nlibrary Counters {\n    using SafeMath for uint256;\n\n    struct Counter {\n        // This variable should never be directly accessed by users of the library: interactions must be restricted to\n        // the library's function. As of Solidity v0.5.2, this cannot be enforced, though there is a proposal to add\n        // this feature: see https://github.com/ethereum/solidity/issues/4637\n        uint256 _value; // default: 0\n    }\n\n    function current(Counter storage counter) internal view returns (uint256) {\n        return counter._value;\n    }\n\n    function increment(Counter storage counter) internal {\n        counter._value += 1;\n    }\n\n    function decrement(Counter storage counter) internal {\n        counter._value = counter._value.sub(1);\n    }\n}\n\n// File: contracts/Strings.sol\n\npragma solidity ^0.5.0;\n\n//https://github.com/oraclize/ethereum-api/blob/master/oraclizeAPI_0.5.sol\nlibrary Strings {\n\n    function strConcat(string memory _a, string memory _b) internal pure returns (string memory _concatenatedString) {\n        return strConcat(_a, _b, \"\", \"\", \"\");\n    }\n\n    function strConcat(string memory _a, string memory _b, string memory _c) internal pure returns (string memory _concatenatedString) {\n        return strConcat(_a, _b, _c, \"\", \"\");\n    }\n\n    function strConcat(string memory _a, string memory _b, string memory _c, string memory _d) internal pure returns (string memory _concatenatedString) {\n        return strConcat(_a, _b, _c, _d, \"\");\n    }\n\n    function strConcat(string memory _a, string memory _b, string memory _c, string memory _d, string memory _e) internal pure returns (string memory _concatenatedString) {\n        bytes memory _ba = bytes(_a);\n        bytes memory _bb = bytes(_b);\n        bytes memory _bc = bytes(_c);\n        bytes memory _bd = bytes(_d);\n        bytes memory _be = bytes(_e);\n        string memory abcde = new string(_ba.length + _bb.length + _bc.length + _bd.length + _be.length);\n        bytes memory babcde = bytes(abcde);\n        uint k = 0;\n        uint i = 0;\n        for (i = 0; i < _ba.length; i++) {\n            babcde[k++] = _ba[i];\n        }\n        for (i = 0; i < _bb.length; i++) {\n            babcde[k++] = _bb[i];\n        }\n        for (i = 0; i < _bc.length; i++) {\n            babcde[k++] = _bc[i];\n        }\n        for (i = 0; i < _bd.length; i++) {\n            babcde[k++] = _bd[i];\n        }\n        for (i = 0; i < _be.length; i++) {\n            babcde[k++] = _be[i];\n        }\n        return string(babcde);\n    }\n\n    function uint2str(uint _i) internal pure returns (string memory _uintAsString) {\n        if (_i == 0) {\n            return \"0\";\n        }\n        uint j = _i;\n        uint len;\n        while (j != 0) {\n            len++;\n            j /= 10;\n        }\n        bytes memory bstr = new bytes(len);\n        uint k = len - 1;\n        while (_i != 0) {\n            bstr[k--] = byte(uint8(48 + _i % 10));\n            _i /= 10;\n        }\n        return string(bstr);\n    }\n}\n\n\n\npragma solidity ^0.5.0;\n\ninterface KOPrintRegistryInterface {\n\n    function mint(uint256 _artId, string calldata _nfc) external returns (uint256 _tokenId);\n}\n\npragma solidity ^0.5.0;\n\ninterface KOv1Interface {\n\n    function ownerOf(uint256 _artId) external view returns (address);\n}\n\npragma solidity ^0.5.0;\n\ninterface KOv2Interface {\n\n    function ownerOf(uint256 _artId) external view returns (address);\n}\n\n\n\n// File: contracts/PunkPrintRegistryMinter.sol\n\npragma solidity ^0.5.0;\n\ncontract KOPrintRegistryMinter  {\n    using SafeMath for uint256;\n\n    ///////////////\n    // Variables //\n    ///////////////\n\n\n    KOPrintRegistryInterface public koprContract;\n    KOv1Interface public kov1Contract;\n    KOv2Interface public kov2Contract;\n\n    address public owner1;\n    address public owner2;\n\n    mapping(address => uint256) public addressToCreditsToSpend;\n\n    mapping(address => uint256) public managerAddressToCreditsToGive;\n\n\n\n\n\n    /////////////////\n    // Constructor //\n    /////////////////\n\n    constructor(address _owner2, address _registryContract) public {\n\n        koprContract = KOPrintRegistryInterface(_registryContract);\n        kov1Contract = KOv1Interface(0xDdE2D979e8d39BB8416eAfcFC1758f3CaB2C9C72);\n        kov2Contract = KOv2Interface(0xFBeef911Dc5821886e1dda71586d90eD28174B7d);\n\n        owner1 = msg.sender;\n        owner2 = _owner2;\n\n    }\n\n\n\n    //////////////////////////////\n    // Minting Function         //\n    //////////////////////////////\n\n    function mint(uint256 _artId, string memory _contactMethodAndType) public returns (uint256) {\n        uint256 balance = addressToCreditsToSpend[msg.sender];\n        if (_artId<304){\n        require(msg.sender == kov1Contract.ownerOf(_artId), \"You must own artwork.\");\n        } else {\n        require(msg.sender == kov2Contract.ownerOf(_artId), \"You must own artwork.\");\n        }\n        require(balance>0, \"You must have credits!\");\n        uint256 mintedToken = koprContract.mint(_artId, _contactMethodAndType);\n        addressToCreditsToSpend[msg.sender] --;\n        return mintedToken;\n    }\n\n    //////////////////////////////\n    // Manager Function         //\n    //////////////////////////////\n\n    function giveCredit(address _recipient) public {\n        uint creditsToGive = managerAddressToCreditsToGive[msg.sender];\n        require(creditsToGive>0 || msg.sender==owner1 || msg.sender==owner2 , \"You must have permission!\");\n        addressToCreditsToSpend[_recipient] ++;\n        managerAddressToCreditsToGive[msg.sender] --;\n    }\n\n    //////////////////////////////\n    // Owner Functions          //\n    //////////////////////////////\n\n    function setManagerCredits(address _manager, uint _credits) public returns (bool) {\n        require(msg.sender == owner1 || msg.sender == owner2);\n        managerAddressToCreditsToGive[_manager]=_credits;\n        return true;\n    }\n\n    function removeManager(address _manager) public returns (bool) {\n        require(msg.sender == owner1 || msg.sender == owner2);\n        managerAddressToCreditsToGive[_manager]=0;\n        return true;\n    }\n\n}\n",
  "sourcePath": "/Users/andygray/workspace/KOPrintApp/contracts/KOPrintRegistryMinter.sol",
  "compiler": {
    "name": "solc",
    "version": "0.5.0+commit.1d4f565a.Emscripten.clang"
  },
  "schemaVersion": "3.0.22",
  "updatedAt": "2020-02-27T09:20:30.758Z",
  "networkType": "ethereum",
  "devdoc": {
    "methods": {}
  },
  "userdoc": {
    "methods": {
      "constructor": "//////////////",
      "giveCredit(address)": {
        "notice": "///////////////////////////"
      },
      "mint(uint256,string)": {
        "notice": "///////////////////////////"
      },
      "setManagerCredits(address,uint256)": {
        "notice": "///////////////////////////"
      }
    }
  }
}